:100000000200FC750800750940E4FBFAF50AF50BDF
:100010001200D2C3E5099481E508648094C04003CE
:100020000200A27F401201081200B0AA0AAB0BC363
:10003000EB9509E5086480F8EA6480985017741F0E
:100040002BF58274013AF583E493FF1201100BBB88
:1000500000010A80DA7F2C7E011200B47F80120139
:1000600008E4FF1201107F011201107F021201103B
:100070007F031201107FC01201087F041201107F5C
:10008000051201107F061201107F0712011085086A
:100090000A85090B74402509F509E43508F50802BD
:1000A000001322C2A58F807F0A7E001200B4D2A561
:1000B0007F0A7E00D3EF9400EE940040147D0A7C0A
:1000C00000ED1D70011CED4C70F7EF1F70E61E80F7
:1000D000E322C291C2A6C2A77F381201081200B063
:1000E0007F0C1201081200B07F061201081200B046
:1000F0007F011201087F0A7E000200B4787FE4F6D7
:10010000D8FD75810B020118C2901200A3C2A5226E
:10011000D2901200A3C2A522120003E4FEFF221A0D
:100120001E121614181C18000000181810000000E9
:10013000000001010000001F1F1F1F1F1F1F0F18BD
:10014000100000000000000000000000000000009F
:100150000000000000000007030303030100001F6C
:100160001F1F1F1F1F1F1F0010101808080818004E
:10017000000000000000000F0F0F0F0F0F0F0F1FE8
:100180001F1F1E1C1C1818000000000000000000AB
:100190000000000000000007030303010100001F2E
:1001A0001F1F1F1F1F1F1F1C1C1C1A1E1E1E1C0092
:1001B0000000000000000007070F0F0F0F0F031FC4
:1001C0001F1F1F1F1F1F1F181818101010000000DE
:1001D000000000000000000301010100080C0C1FDA
:1001E0001F1F1F1F1F1F1F1C1E1E1E1E1E1E1E0048
:1001F0000000000000000007070F0F0F0F0F0F1F78
:100200001F1F1F1F1F1F1F1C1C1C18181810100059
:100210000000000000000007070703030303031F9B
:100220001F1F1F1F1F1F1F18181C1C1E1E1C18001D
:10023000010101000101001F1F1F1F1F1F1F1F1FA2
:100240001F1F1F1F1F1F1F1810101010000000007D
:10025000020202060606061F1F0F0F0F0F0F071FD1
:100260001F1F1F1F1F1F1F181818181C1C1C1801E8
:10027000010307071B1B031F1F1F1F1F1F1F1F1F1C
:100280001F1F1F1F1E1E1C10101000000000000367
:1002900001010109090C0C1F1F1F1F1F1F1F0F1F2A
:1002A0001F1F1F1F1F1F1F181818181818181003BA
:1002B00007070F0F070F071F1F1F1F1F1F1F1F1FDE
:1002C0001F1F1F1E1E1C1C101008080808180007FE
:1002D000030303010101011F1F1F1F1F1F1F1F1FFA
:1002E0001F1F1F1F1F1F1F001010101018181007AE
:1002F000070F1F1F0F0F0F1F1F1F1F1F1F1F1F1F66
:100300001F1F1F1F1E1E1C00000808080808000FE2
:10031000070707030303031F1F1F1F1F1F1F1F1FA5
:100320001F1F1F1F1F1F1F10181818181818180339
:100330000F0F0F1F1F0F071F1F1F1F1F1F1F1F1F25
:100340001F1F1F1F1F1F1F1414161614040C0C0749
:10035000070303030101031F1F1F1F1F1F1F1F1F71
:100360001F1F1F1F1F1F1F1F181C1C1C1F1C1C13BF
:10037000030707070F0F071F1F1F1F1F1F1F1F1F29
:100380001F1F1F1F1F1F1F1C1C1C1E1A1A1A1E03B3
:10039000030301010000001F1F1F1F1F1F1F1F1F3E
:1003A0001F1F1F1F1F1F1F1F1C1C1E1E1F1E1E1B6B
:1003B000030707070707031F1F1F1F1F1F1F1F1FFD
:1003C0001F1F1F1F1F1F1F1C1C1C1C1C1C1C1C0371
:1003D000050505000000001F1F1F1F1F1F1F1F1FF7
:1003E0001F1F1F1F1F1F1F1F1C1E1F1F1F1F1E1928
:1003F000010303030703031F1F1F1F1F1F1F1F1FCF
:100400001F1F1F1F1F1F1F1E1E1C1C1C181C1E052C
:10041000070706020000011F1F1F1F1F1F1F1F1FAE
:100420001F1F1F1F1F1F1F1F1C1E1E1F1F1F1E1FE2
:10043000030303030303031F1F1F1F1F1F1F1F1F90
:100440001F1F1F1F1F1F1F1C1C1C18181C1C1C07F4
:10045000070505040602031F1F1F1F1F1F1F1F1F65
:100460001F1F1F1F1F1F1F1F1C1E1E1E1E1E1C1FA7
:100470000B07070707070F1F1F1F1F1F1F1F1F1F28
:100480001F1F1F1F1F1F1F1C1C1818181818180BC0
:100490000B0B0B0D0D05071F1F1F1F1F1F1F1F1FFE
:1004A0001F1F1F1F1F1F1F1F1D1E1C1E1E1C1C1F6A
:1004B0001F07070F0F0F071F1F1F1F1F1F1F1F1FC4
:1004C0001F1F1F1F1F1F1F1C1C1C101010101007A8
:1004D0001F1F1B0B0B0F071F1F1F1F1F1F1F1F1F80
:1004E0001F1F1F1F1F1F1F1F191C1C1C1C1C181F38
:1004F0001F0F0F0F1F0F0F1F1F1F1F1F1F1F1F1F5C
:100500001F1F1F1F1F1F1F1C1C1414101010180F5B
:10051000070707070707071F1F1F1F1F1F1F1F1F93
:100520001F1F1F1F1F1F1F1F1B1C1C1C1C1C181FF5
:100530001F0F1F1F1F1F0F1F1F1F1F1F1F1F1F1FEB
:100540001F1F1F1F1F1F1F18181810101018180F1B
:100550000F0707070707071F1F1F1F1F1F1F1F1F4B
:100560001F1F1F1F1F1F1F1F1F1C1C1C1C1C1E1FAB
:10057000170F0F0F1F0F071F1F1F1F1F1F1F1F1FEB
:100580001F1F1F1F1F1F1F1A1A1A1A1E1E1C1C07AF
:10059000070703030303031F1F1F1F1F1F1F1F1F27
:1005A0001F1F1F1F1F1F1F1F1F1C1E1E1F1F1E1F61
:1005B0001F070F0F0F0F071F1F1F1F1F1F1F1F1FBB
:1005C0001F1F1F1F1F1F1F1E1D1F1B1B1A1E1C0767
:1005D000070301010103031F1F1F1F1F1F1F1F1FF1
:1005E0001F1F1F1F1F1F1F1F1F1E1E1E1F1F1E1F1F
:1005F000130707070707031F1F1F1F1F1F1F1F1FAB
:100600001F1F1F1F1F1F1F1E1C1C181C1C1E1E0728
:10061000070505010101011F1F1F1F1F1F1F1F1FAE
:100620001F1F1F1F1F1F1F1F1F1E1F1F1F1F1F1FDB
:100630001B0303070707031F1F1F1F1F1F1F1F1F6A
:100640001F1F1F1F1F1F1F1E1D1D181C1E1E1E03E8
:10065000030505010103031F1F1F1F1F1F1F1F1F6E
:100660001F1F1F1F1F1F1F1F1C1E1E1F1F1E1E1FA1
:100670001B07070707070F1F1F1F1F1F1F1F1F1F16
:100680001F1F1F1F1F1F1F1C1C1C1818181C1C0FAE
:100690000F0F0D050707031F1F1F1F1F1F1F1F1F02
:1006A0001F1F1F1F1F1F1F1F1D1E1E1E1E1E1C1F64
:1006B0001F07070F1F07071F1F1F1F1F1F1F1F1FBA
:1006C0001F1F1F1F1F1F1F1C1C1818181818180F7A
:1006D0000F0B0B0B0F07071F1F1F1F1F1F1F1F1FB6
:1006E0001F1F1F1F1F1F1F1F1D1E1E1E1E1E1C1F24
:1006F0001F07070F0F0F071F1F1F1F1F1F1F1F1F82
:100700001F1F1F1F1F1F1F1C1A1A18101010100761
:100710000B0B0B0B0303071F1F1F1F1F1F1F1F1F89
:100720001F1F1F1F1F1F1F1F1C1E1E1E1E1E1E1FE2
:10073000010103030703031F1F1F1F1F1F1F1F1F8D
:100740001F1F1F1F1F1F1F1C1C1C1C1818181803FD
:10075000010707060602021F1F1F1F1F1F0F0F1F83
:100760001F1F1F1F1F1F1F1F1C1E1E1E1E1F1F1FA0
:10077000000001000101011F0F0F1F1F1F1F1F1F7E
:100780001F1F1F1F1F1F1F1F1E1E1E1E1E1E1E019E
:10079000010001010101011F1F1F0F070713131F94
:1007A0001F1F1F1F1F1F1F1F1F1F1F1F1F1F1F1F59
:1007B0001010000010101C17030307070307071F82
:1007C0001F1F1F1F1F1F1F1F1F1F1F1F1F1F1F1C3C
:1007D0001010101010100007070F07070919181F35
:1007E0001F1F1F1F1F1F1F1F1F1F1F1F1F1F1F1F19
:1007F0001F1C18101818181F1F0F07070303031FCB
:100800001F1F1F1F1F1F1F1F1F1F1F1F07101C1C25
:100810001C1C18181000000303070F0F0F07031FFD
:100820001F1F1F1F1F1F1F1F1F1F1F1F1F1F1F1FD8
:100830001F1E18101018181F1F1F07070707031F78
:100840001F1F1F1F1F1F1F1F1F1F17171C1C1C1CD4
:100850001C1C181800000007070F1F1F0F07071F99
:100860001F1F1F1F1F1F1F1F1F1F1F1F1F1F1F1F98
:100870001F1C18101018181F1F1F0F0F0707071F26
:100880001F1F1F1F1F1F1F1F1F1F171B1C18181E96
:100890001E1C1810000808070F0F1F1F0F0F071F3F
:1008A0001F1F1F1F1F1F1F1F1F1F1F1F1F1F1F1F58
:1008B0001F1818101018181F1F1F0F0F0F07071FE2
:1008C0001F1F1F1F1F1F1F1F1F1F171B1818181E5A
:1008D0001C1C1810000808070F0F0F0F0F0F0F1F19
:1008E0001F1F1F1F1F1F1F1F1F1F1F1F1F1F1F1F18
:1008F0001F1818100018181F1F1F0F0F0F07071FB2
:100900001F1F1F1F1F1F1F1F1F1F171B1C18181E15
:100910001C181810000000070F0F1F0F0F0F0F1FDC
:100920001F1F1F1F1F1F1F1F1F1F1F1F1F1F1F1FD7
:100930001B1810100018181F1F1F0F0F0707071F85
:100940001F1F1F1F1F1F1F1F1F1F13191C1C181CD9
:100950001E181810000000070F0F1F0F0F0F0F1F9A
:100960001F1F1F1F1F1F1F1F1F1F1F1F1F1F1F1F97
:100970001B1810000010181F1F0F0F070707071F75
:100980001F1F1F1F1F1F1F1F1F13131D1C1C1C1C9D
:100990001E1C1810000008070F0F0F0F0F0F071F66
:1009A0001F1F1F1F1F1F1F1F1F1F1F1F1F1F1F1F57
:1009B0001D1810001010181F1F0F07070703031F33
:1009C0001F1F1F1F1F1F1F1F1F1B191C1C1C1C1C50
:1009D0001E1C181000000803070F0F0F0F07071F3A
:1009E0001F1F1F1F1F1F1F1F1F1F1F1F1F1F1F1D19
:1009F0001C1810001010181F0F0707030303031F14
:100A00001F1F1F1F1F1F1F1F1D191D1C1C1C1C1A11
:100A10001A1C1C080000080307070F0F0707071F11
:100A20001F1F1F1F1F1F1F1F1F1F1F1F1F1F1F1CD9
:100A30001C1010001010181F070703030303011FE9
:100A40001F1F1F1F1F1F1F1F1C181C1E1C1C1C18D4
:100A50001E1C1C0800000801070707070707071FDF
:100A60001F1F1F1F1F1F1F1F1F1F1F1F1F1F1F1C99
:100A70001C1000001010181F070303030101011FC1
:100A80001F1F1F1F1F1F1F1F1C1C1E1E1E1E1E1888
:100A90001E1C0C0000000801030307070707031FC3
:100AA0001F1F1F1F1F1F1F1F1F1F1F1F1F1F1F1E57
:100AB0001C1000001010181F070303030101011F81
:100AC0001F1F1F1F1F1F1F1E1C1C1E1E1E1E1E1849
:100AD0001E1C0C0000001801030307070707031F73
:100AE0001F1F1F1F1F1F1F1F1F1F1F1F1F1F1F1E17
:100AF0001C1000001010181F070303030101011F41
:100B00001F1F1F1F1F1F1F1E1C1C1E1E1E1E1C180A
:100B1000181C0C0000081801030307070707031F30
:100B20001F1F1F1F1F1F1F1F1F1F1F1F1F1F1F1ED6
:100B30001C1000001010101F070703030301011F02
:100B40001F1F1F1F1F1F1F1E1C1C1E1E1E1E1C18CA
:100B50001A1C0C0000081801030307070707031FEE
:100B60001F1F1F1F1F1F1F1F1F1F1F1F1F1F1F1C98
:100B70001C1000000010101F070703030301011FD2
:100B80001F1F1F1F1F1F1F1F1C1C1E1E1E1C1C188B
:100B90001A1C1C0000081801030307070707031F9E
:100BA0001F1F1F1F1F1F1F1F1F1F1F1F1F1F1F195B
:100BB0001C1000000010101F0F0707030303031F82
:100BC0001F1F1F1F1F1F1F1F1C181C1E1C1C1C1853
:100BD0001E18180800081803050707070707071F4E
:100BE0001F1F1F1F1F1F1F1F1F1F1F1E1E1F1F1323
:100BF000180000000010101F0F0F07070703031F46
:100C00001F1F1F1F1F1F1F1F1D19191C1C1C1C101D
:100C10001C1C1818000000030707070F0707071F11
:100C20001F1F1F1F1F1F1F1F1F1F1F1E1E1F1F07EE
:100C3000101000000010101F0F0F07070707071FF5
:100C40001F1F1F1F1F1F1F1F1F1B13111C1C1C10EA
:100C5000161C1C1810000007070F0F0F0F07071FA7
:100C60001F1F1F1F1F1F1F1C1E1E1E1C1C1F1F1DA2
:100C7000000000000000101F1F0F0F070707071FCD
:100C80001F1F1F1F1F1F1F1F1F1F1F1F07071014BE
:100C90001E1C18181810100F0F0F0F070707071F3B
:100CA0001F1F1F1F1F1F1F1F19181C1C1C1C1E1F6E
:100CB000010000000000001F1F1F1F0F0F07071F6C
:100CC0001F1F1F1F1F1F1F1F1F1F1F1F1F1F1F0053
:100CD0001C1E1C1C18181807070F07030703031F07
:100CE0001F1F1F1F1F1F1F1F1F1F1F1F1F1F1F1F14
:100CF0001F1710100000001F1F0F07070303031F1B
:100D00001F1F1F1F1F1F1F1F1F1F1F1F1F1F1F1002
:100D100018181E1F1F1F1E03030303010100001FDD
:100D20001F1F1F1F1F1F1F1F1F1F1F1F1F1F1F1FD3
:100D30001F1F1F1E1E1F1F1F1D1800000000001F69
:100D40001F1F1F1F1F1F1F1F1F1F1F1F1F1F1F1FB3
:100D50001F1F1F1F1F1F1F00101818181818181FFB
:100D60001F1F1F1F1F1F1F1F1F1F1F1F1F1F1F1F93
:100D70001F1F1F1F1F1F1F1F1F1E1E1E1E1E1E1F89
:100D80001F1F1F1F1F1F1E1F1F1F1F1F1F1C1E1F78
:100D90001F1F1F190101001F1C1800101010101F29
:100DA0001F1F1F1F1F1F1F1F1F1F1F1F1F1F1F1F53
:100DB0001F1F1F1F1F1F1F1F1F1F1F1F1F1F1F1F43
:100DC0001F1F1F1F1F1F1F1F1F1F1F1F1E1E1F1F35
:100DD0001713000000001F1F1F1F0F0F0F0F171FFB
:100DE0001F1F1F1F1F1F1F1C1F1F1F1F1F1F1F1F16
:100DF0001F1F1F1F1F1F1F1F1F1F1F1F1F1F1F1F03
:100E00001F1F1F1F1F1F1F1F1F1F1F1F1F1F1F1FF2
:100E10001F1F1F1F1F1F1F1F1F1F1F1F1F1F1F1FE2
:100E20001F1F1F1F1F1F1F1F1F1E1C1C1E1F1F1FDA
:100E30001F0F07071F1F1F1F1F1F1F1F1F1F1F1F02
:100E40001F1F1F1F1F1F1F1F1F1F1F1F1F1F1F1FB2
:100E50001F1F1F1F1F1F1F1F1F1F1F1F1F1F1F1FA2
:100E60001F1F1F1F1F1F1F1F1F1F1F1F1F1E1E1F94
:100E70001F1F1F1F1F07031F1F1F1F1F1F1F1F1FB6
:100E80001F1F1F1F1F1F1F1E1F1F1F1F1F1F1F078B
:100E90001F1F1F1F1F1F1F1F1F1F1F1F1F1F1F1F62
:100EA0001F1F1F1F1F1F1F1F1F1F1F1F1F1F1F1F52
:100EB0001F1F1F1F1F1F1F1F1F1F1F1F1F1F1F1F42
:100EC0001F1F1F1F1F1F1F1F1E1E1F1F1F1F1F074C
:100ED0000303031F1F1F1F1F1F1F1F1F1F1F1F1F76
:100EE0001F1F1F1F1F1F1F1F1F1F1F1F1F1F1F1F12
:100EF0001F1F1F1F1F1F1F1F1F1F1F1F1F1F1F1F02
:100F00001F1F1F1F1F1F1F1F1F1E1E1E1F1F1F1FF4
:100F100007030303171F1F1F1F1F1F1F1F1F1F1F55
:100F20001F1F1F1F1F1F1F1F1F1F1F1F1F1F1F1FD1
:100F30001F1F1F1F1F1F1F1F1F1F1F1F1F1F1F1FC1
:100F40001F1F1F1F1F1F1F1F1E1E1E1F1F1F1F07CC
:100F5000030303071F1F1F1F1F1F1F1F1F1F1F1F0D
:100F60001F1F1F1F1F1F1F1F1F1F1F1F1F1E1E1F93
:100F70001F1F1F1F1F07031F1F1F1F1F1F1F1F1FB5
:100F80001F1F1F1F1F1F1F1E1E1F1F1F1F1F1F038F
:100F9000030F1F1F1F1F1F1F1F1F1F1F1F1F1F1F8D
:100FA0001F1F1F1F1F1F1F1F1F1F1F1F1E1C1C1F58
:100FB0001F1F1F070703031F1F1F1F1F1F1F1F1FA9
:100FC0001F1F1F1F1F1F1F1E1F1F1F1F1F1F1F0F42
:100FD0001F1F1F1F1F1F1F1F1F1F1F1F1F1F1F1F21
:100FE0001F1F1F1F1F1F1F1F1F1F1F1F1E1C1C1F18
:100FF0001F1F1F070303031F1F1F1F1F1F1F1F1F6D
:101000001F1F1F1F1F1F1F1E1F1F1F1F1F1F1F030D
:101010001F1F1F1F1F1F1F1F1F1F1F1F1F1F1F1FE0
:101020001F1F1F1F1F1F1F1F1F1F1F1F1F1E1E1FD2
:101030001F1F1F1F0301011F1F1F1F1F1F1F1F1F18
:101040001F1F1F1F1F1F1F1E1F1F1F1F1F1F1F01CF
:10105000031F1F1F1F1F1F1F1F1F1F1F1F1F1F1FBC
:101060001F1F1F1F1F1F1F1F1F1F1F1F1F1F1E1F91
:101070001F1F1F1F1F01011F1F1F1F1F1F1F1F1FBC
:101080001F1F1F1F1F1F1F1E1E1F1F1F1F1F1F0091
:1010900001031F1F1F1F1F1F1F1F1F1F1F1F1F1F9A
:1010A0001F1F1F1F1F1F1F1F1F1F1F1F1F1F1E1F51
:1010B0001F1F1F1F1F13011F1F1F1F1F1F1F1F1F6A
:1010C0001F1F1F1F1F1F1F1E1E1F1F1F1F1F1F0150
:1010D00001031F1F1F1F1F1F1F1F1F1F1F1F1F1F5A
:1010E0001F1F1F1F1F1F1F1F1F1F1F1F1F1F1E1F11
:1010F0001F1F1F1F1F17031F1F1F1F1F1F1F1F1F24
:101100001F1F1F1F1F1F1F1E1E1E1F1F1F1F1F0110
:1011100001031F1F1F1F1F1F1F1F1F1F1F1F1F1F19
:10112000000000000000001F030303010103071F6C
:101130001F1F1F181C1E1E1F1F1F1F1F0F0703002E
:101140000000000000000007070303000000001E6D
:101150001F1E1E1C00000000000000000000001FF9
:10116000000000000000001F030303010103071F2C
:101170001F1F1F181C1E1E1F1F1F1F1F0F070300EE
:101180000000000000000007070303000000001E2D
:101190001F1E1E1C00000000000000000000001FB9
:1011A000000000000000001F030303010103071FEC
:1011B0001F1F1F181C1E1E1F1F1F1F1F0F070300AE
:1011C0000000000000000007070303000000001EED
:1011D0001F1E1E1C00000000000000000000001F79
:1011E0001F1F1F1F1F1F1F1F1F1F1F1F1F1F1F1816
:1011F0001F1F1F1F1F1F1F0E1C1F1F1F1F1F1F1F13
:101200001F0000000000001F1F1F07020000001F3A
:10121000070000000000001F1F1F0000000000105A
:10122000101C1C1C1E1F1F000000000000001D00E1
:101230000000000000001F000000000000001C1F54
:101240001F1F1F1F1F1F1C1F1F1F1F1F1F03001FEC
:101250001F1F1F1F1F1F011C1F1F1F1F1F1F1C1FC2
:101260001F1F1F1F1F1F1F1C1F1F1F1F1E1F1F00B1
:101270000000001000001F00000000000000001F20
:101280001F1F1F1F1F1F1F1F1F1F1F1F1F1F1F1F6E
:101290001F1F1F1F1F1F1F001F1F1F1F1F1F1F009C
:1012A000000003070707071F0F07031B1B1B1F1F58
:1012B0001F1F1F1F1F1F1F1F1F1F1F1F1E1E1F005F
:1012C00000000000001F1F1F0F070F0F1F1F1F1F11
:1012D0001F1F1F1F1F1F1F1F1F1F1F1F1F1F1F003D
:1012E000000000000000000F030100000307071FBB
:1012F0001F1F0F071313171F1F1F1F1F1F1F1F0065
:101300000000000000000007010000000000001FB6
:101310001F1F0F0F0E1E1D1F1F1F1F1F1F1F1F0030
:10132000000000000000001F0F0701000003071F5E
:101330001F1F1F0F071F191F1F1F1F1F1F1F1F000A
:101340000000000000000007030100000000001979
:101350001F1F0F0F0707071F1F1F1F1F1F1F1F0024
:10136000000000000000001F1F0F03010001071F05
:101370001F1F1F1F1F1F1F1F1F1F1F1F1F1F1F009C
:101380000000000000000007070300000000001F2D
:10139000191F1F1F0F0F0F1F1F1F1F1F1F1F1F00B2
:1013A000000000000000001F0F0F07030000011FD6
:1013B0001F1F1F1F1F1F1F1F1F1F1F1F1F1F1F005C
:1013C0000000000000000003030301000000001FF4
:1013D0001F1F1F0F0F0F0F1F1F1F1F1F1F1F1F007C
:1013E000030301000000001E1E1F1F1F0F03010F3B
:1013F0001F1F1F1F1F1F1F1F1F1F1F1F1F1F1F001C
:101400000000000000000001010101000000001FB9
:101410001F1F1F1F0707071F1F1F1F1F1F1F1F0043
:101420000103030303010000101C1F1F1F1F070FF0
:101430001F1F1F1F1F1F1F1C1F1F1F1C1F1F1F00E1
:101440000000000000000001030301000000001F75
:101450001F1F1F1F0F0F0F1F1F1F1F1F1F1F1F00EB
:101460000000000000000000000F1F1F1F07010008
:101470000F1F1F1F1F1F1F00101C1E1E1E1F1F00DF
:101480000001000000000003030300000000001F33
:101490001F1F1F1F1F1F1F1F1F1F1F1F1F1F1F007B
:1014A000000000000000040000070F0F0701030008
:1014B000001E1F1F1F1F1F000000141814181E00FD
:1014C000000A00001F1F1F03001801011F1F1F1F1C
:1014D0001F1F1F1F1F1F1F1E1C1C1F1F1F1F1F0042
:1014E00001000000000002000000070703010100E6
:1014F00005001E1F1F1F1F00000000000810100025
:10150000001F0F071000000008191F1F0800001F10
:101510001F1F1F1F1F0703181C1F1F1F1F041F0053
:1015200000000000000001001000030301010000A2
:1015300000051C1E1F1F1E00000000000800000008
:1015400007030210100000011F1F00020000001F0F
:101550001F1F1F160004031F1F1F1F0300041F006F
:101560001000000800000100001003030103010047
:1015700000001C1C1E1E1F000000010000101C01AA
:10158000110009181000001F1F0012000000001FAA
:101590001F1C00000005031E1E1E000000061F0089
:1015A00008000014000000000008010301001F00F3
:1015B00000001C1C1C1E1F0000000300001018006F
:1015C0000100080C1000000F0C0012000000001FAA
:1015D0000D181000000003181A00000000041F007E
:1015E00000040004000000000008010301011F00C6
:1015F0000000181C1C1F1F00000002100010180023
:1016000008000C00000000020C0010000000001F89
:1016100004080000000000180000000000000000A6
:1016200000040008000000000000010301011F0089
:1016300000001C1C1C1F1F000000030000101800ED
:1016400008000400000000020E0000000000001F5F
:101650000400000000000010020000000000000074
:1016600000000008000000000008010101191F002F
:101670000000181C1C1F1F000000030000101000B9
:101680000800040000000000060000000000000F39
:101690000408040000000010020000000000000028
:1016A000000000080000000000000303011F1F00ED
:1016B00000001D1C1C1F1F00000000000010100077
:1016C00000000400000000000A0000000000000B01
:1016D00004000400000000100200000000000000F0
:1016E0000004000A0000000000000303011F1F00A7
:1016F0000000191C1E1F1F00000001080010100030
:1017000004000400000000000200000000000009C6
:1017100004000000000000100200000000000000B3
:101720000000000A0000000010000303011F1F005A
:1017300000001D1C1E1F1F000000010000101000F3
:101740000410040000000000020000000000001B64
:1017500004040C0000000010020000000000000063
:1017600000000002000000000000030301191F0038
:101770000000191C1E1F1F000000010800081000B7
:101780000410040000000000020008000000001F18
:101790000500000000000010020000000000000032
:1017A00000000002000000000000030301011F0010
:1017B000000011181E1C1F00000001080008100086
:1017C0000410060000000007120008000000001FBF
:1017D00002040000000000101200000000000000E1
:1017E00000000006000000000000000301011F00CF
:1017F000000011181A181F0000000108000810004E
:10180000041006000000000F060008000000001F82
:101810001B00080000000010100000000000000085
:1018200000000006000000000000000301011F008E
:10183000000003181A1C1F00000001080008100017
:10184000041002000000000F020009000000001F49
:101850001B04020000000010110000000000000046
:1018600000000004000000000000030301011F004D
:10187000000000181E1C1F000000010800081000D6
:10188000041002000000000F070008000000001F05
:101890000B0002000000001011000000000000001A
:1018A00000000004000000000000010301011F000F
:1018B00000001A181E1F1F00000011000008100071
:1018C0000410020000000007030000000000001FD9
:1018D00002000200000000101000000000000000E4
:1018E000000000040000000000000101010D0F00D5
:1018F00000001A1C1D1F1F00000000000018180027
:101900000200020000000000050004000000000FBB
:101910000200160000000018110000000000000086
:10192000000000050000000008010101000F0F0089
:1019300000101E1C1D1F1F000000100000181800C2
:101940000208020000000000010004000000000D79
:101950000200000000000010110000000000000064
:1019600000080A0C020A1C000106001C070F0700F1
:10197000181C1E1F0F1F1F0008000200131E1E1A36
:101980000C1800000410000006021A0300000012E8
:101990000F0C0C001400001E000B170200000000CA
:1019A0000018000401080D021000080C0E1C1B009A
:1019B00010031F1713071F0003101C181E1F1F0002
:1019C00000030300000000010100050C0000001BE3
:1019D000141811000808001F110C000C040000006E
:1019E0000C10000601001C0000001C041100040281
:1019F0000401170707031B00041010181C1D1F000B
:101A00000000000300000003120000000800001F97
:101A1000070003000000001F1F0B000D0000000066
:101A200010040F00000410000001071E1000000049
:101A30000010031F0703030000001310141C1F04F1
:101A40001F06161E1E1E1E11000000000000001FB3
:101A50000F0300040000001F1F1E00000000000014
:101A60000100000000000100000008010008000063
:101A70000000060F070703000000040114101800FF
:101A8000081C1E1F1F1F1F0000040C1C1C1C1C0711
:101A9000070300000000001C1C1800000000001FCD
:101AA0001F1F1F1F1F1F1F1F1F1F1F1F1F1F1F1F46
:101AB0001F1F1F1F1F1F1F1F1F1F1F1F1F1F1F1F36
:101AC0001F1F1F1F1F1F1F1F1F1F1F1F1F1F1F1F26
:101AD0001F1F1F1F1F1F1F1F1F1F1F1F1F1F1F1F16
:101AE0001F1F1F1F1F1F1F1F1F1F1F1F1F1F1F1F06
:101AF0001F1F1F0F1F1F1F1F1F1F1F1F0F1F1B1F1A
:101B00001F1F1F1F1F1F1F1F1F1F171F1F1F1F1FED
:101B10001F1E1F1F1F1F1F1F1F1F1F1F1F1F1F1FD6
:101B20001F171F1F1F1F1F1F1F1F1F1F1F1F1F1FCD
:101B30001F1F1F0F1F1F1F1F1F1F1F1F0F1F1B1FD9
:101B40001F1F1F1F1F1F1F1F1F1F171F1F1F1F1FAD
:101B50001F1E1F1E1F1F1F1B1B1F1B1F1F1F1F1FA3
:101B60001F171F1F1F1F1F1F1F1F1F1F1F1F1F1F8D
:101B70001F1F1F0F1F1F1F1F1F1F1B1F0F1F1B1F9D
:101B80001F1F1F1F1F1F1F1F1F1F171F1F1F1F1F6D
:101B90001F1A1F1E1F1F1F1B131F1F1F1F1F1F1F6B
:101BA0001F171F1F1F1F1F1F1F1F1F1D1F1F1F1F4F
:101BB0001F1F1F0F1F1F171F1F1F1B1F0F1F1B1F65
:101BC0001F1F1F1F1F1F1F1F1F1F171F1F1F1F1F2D
:101BD0001F1A1F1A0F1F1F1B1B1F1F1F1F1F1F1F37
:101BE0001F171F1F1F1F1F1F1F1F1F1D1F1F1B1F13
:101BF0001F1F1F1F1F1F1F1F1F1F1B1E0F171B1F16
:101C00001F1F1F1F1F1F1F1F1F1F171F1F1F1F1FEC
:101C10001F1E1F1A1F1F1F1B1B0F1B1F1F1F1F0015
:101C200000000000000001000000080100080000A2
:101C30000100060E0F07070000000200040018084C
:101C40000C1E1F1F1F1F1F000002061F1E1E1E0F3F
:101C50000F03000000000018181000000000000032
:101C60000100000018000100000008010008000049
:101C70000000040E0F070700000002000600100815
:101C80000C1F1F1F1F1F1F000002031F1F1F1F0FFE
:101C90000F070000000000181810000000000000EE
:101CA000000000000000010000000000000800002B
:101CB0000000040E0F0707000000020006001008D5
:101CC0000C1F1F1F1F1F1F000003031F1F1F1F0FBD
:101CD0000F070000000000181810000000000000AE
:101CE00001000000000001000000000000080000EA
:101CF0000100060E0F070700000002000200100C92
:101D00000C1F1F1F1F1F1F000003031F1F1F1F0F7C
:101D10000F03000000000018180000000000000081
:101D200001000000000001000008000000080000A1
:101D30000000060F0F070F00000002000200100C49
:101D40000C1F1F1F1F1F1F000003131F1F1F1F0F2C
:101D50000F0000000000001810000000000000004C
:101D60000000000000000100000800000008000062
:101D70000000060F0F070F00000002000210100CF9
:101D80000C1F1F1F1F1F1F000001131F1F1F1F0FEE
:101D900007001010101000181000000000000000D4
:101DA0000000000010001100000800000008000002
:101DB0000102160F07070F00000001110210180C96
:101DC0000C1F1F1F1F1F1F001001111F1F1F1F0FA0
:101DD0000700101010101018100100000000000083
:101DE00000000000000400000000000010000000DF
:101DF00010030F0F0707070000021010101C1E0031
:101E00000218181C1C1E1F080000000109011F0FEA
:101E10000F0300001010101E1E1C00000000000028
:101E200000000000000004000000000000000000AE
:101E3000010307070707070010181C1D1E1F1F00BE
:101E4000000000000000000000000000000000038F
:101E5000070703010000001F1F1F1F1F01000000D4
:101E60000000000000000000000000000000000072
:101E7000010303000F0F070F1F1F1F1F1F1F1F004E
:101E8000000000000000000000000000000000044E
:101E9000000003030101010F0F1F1F1F1F1F1F0061
:101EA0000000000000000000000000000107070122
:101EB000000000001C1E1F1F1F0100070F1F1F0036
:101EC0000000000000000007030303000000001FE3
:101ED000171000000000001F1F00000000000C0091
:101EE00000000000000000000000000003070F00D9
:101EF000000000001C1F1F1F0F000003071F1F0012
:101F0000000000000000000F0703030000000007AE
:101F1000030000000000001F1A0000000000000085
:101F200000000000000000000000000001030700A6
:101F3000000000001E1F1F070000000003171F0005
:101F40000000000000000007070101010000001F61
:101F5000131010100000001F1F10000000000000F0
:101F60000000000000000000000000000103070066
:101F7000000000001F1F1F0000000000011F1F00C5
:101F80000000000000000007070100000000001B27
:101F900019181C1C0000001F1F000000000000009A
:101FA0000000000000000000000000070F0F0E00FE
:101FB0000000001E1F1F1700000000001D1F1F0053
:101FC0000000000000000004010303030101000100
:101FD000001010101818001F1F0000000000000063
:101FE000000000000000000F0F0E06000000001FA0
:101FF0001F1F18000000001F1F1F1F060000000009
:102000000000000000000000040E0E0F0703000097
:1020100000000000000000000000000000000000C0
:1020200000000000000000000000000000000300AD
:1020300000000000000000000000000000000000A0
:10204000000000000000001F1F030000000000004F
:102050000000000000000000000000000000000080
:102060000000000000000000000000060E0607004F
:102070000000000000000000000000000000000060
:102080000000000000000007020000000000000047
:102090000000000000000000000000000000000040
:1020A00000000000000000000000000F0F0F000003
:1020B00000001018181000000000000000000000D0
:1020C0000000000000000000000000000000000010
:1020D0000000000000000000000000000000001FE1
:1020E0001F1F1F1F1F1F1F1F1F1F1F1F1F1F1F1F00
:1020F0001F1F1F0F1F1F1F1F1F1F1F1F1F1F1F1F00
:102100001F1F1F1F1F1F1F1F1F1F1F1F1F1F1F1FDF
:102110001F1F1F1F1F1F1F1F1F1F1F1F1F1F1F1FCF
:102120001F1F1F1F1F1F1F1F1F1F1F1F1F1F1F1FBF
:102130001F0F1F1F1F1F1F1F1F1F1F1F1F1F1F1FBF
:102140001F1F1F1F1F1F1F1F1F1F1F1F1F1F1F1F9F
:102150001F1F1F1F1F1F1F1F1F1F1F1F1F1F1F1F8F
:102160001F1F1F1F1F1F1F1F1F1F1F1F1F1F1F1F7F
:102170001E1F1F1F1F1F1F1F1F1F1F1F1F1F1F1F70
:102180001F1F1F1F1F1F1F1F1F1F1F1F1F1F1F1F5F
:102190001F1F1F1F1F1F1F1F1F1F1F1F1F1F1F1F4F
:1021A0001F1F1F1F1F1F1F1F1F1F1F1F1F1F1F1E40
:1021B0001E1E1F1F1F1F1F1F1F1F1F1F1F1F1F1F31
:1021C0001F1F1F1F1F1F1F1F1F1F1F1F1F1F1F1F1F
:1021D0001F1F1F1F1F1F1F1F1F1F1F1F1F1F1F1F0F
:1021E0001F1F1F1F1F1F1F1F1F1F1F1F1F1F1F1FFF
:1021F0001F1F1F1F1F1F1F1F1F1F1F1F1F1F1F1FEF
:102200001F1F1F1F1F1F1F1F1F1F1F1F1F1F1F1FDE
:102210001E1E1E1D1D191F1F1F1F1F1F1F1F1F1FDB
:102220001F1F1F1F1F1F1F1F1F1F1F1F1D181F1FC7
:102230001F1F1F1F1F0F111F1F1F1F1F1F1F1F1FCC
:102240001F1F1F1F1F1F1F1F1F1F1F1F1F1F1F19A4
:102250001F1F1F1F1F1F1F1F1F1F1F1F1F1F1F1F8E
:102260001F1F1F1F1F1F1F1F1F1F1F1F1F1C1B1F85
:102270001F1F1F1F1F0F1F1F1F1F1F1F1F1F1F1F7E
:102280001F1F1F1F1F1F1F17171F1F1F1F1F1F1F6E
:102290001F1F1F1F1F1F1F1F1F1F1F1F1F1F1F1F4E
:1022A0001F1F1F1F1F1F1F1F1F1F1F1F1B1F171F4A
:1022B0001F1F1F1F1F1F1F1F1F1F1F1F1F1F1F1F2E
:1022C0001F1F1E1F1F1F1F0F0F0F0F1F1F1F1F1F5F
:1022D0001F1F1F1F1F1F1F1F1F1F1F1F1F1F1F1F0E
:1022E0001F1F1F1F1E1E1E1F1F1F1F1F1F1F1F1F01
:1022F0001F1F1F1F1F1F1F1F1F1F1F1F1F1F1F1EEF
:102300001E1E1E1E1C1F1F1F1F1F1F1F1F1F1F1FE4
:102310001F1F1F1F1F1F1F1F1F1F1F1F1F1F1F1FCD
:102320001F1F1F1D1D1D1C1F1F1F1F1F1F1F1F1FC6
:102330001F1F1F1F1F1F1F1F1F1F1F1F1F1F1F1DAF
:10234000191D1D1C1C1F1F1F1F1F1F1F1F1F1F1FAD
:102350001F1F1F1F1F1F1F1F1F1F1F1F1F1F1F1F8D
:102360001F1F1D1D1D1C1D1F1F1F1F1F1F1F1F1F88
:102370001F1F1F1F1F1F1F1F1F1F1F1F1F1F1F1973
:10238000181C1C1C1C1C1F1F1F1F1F1F1F1F1F1F73
:102390001F1F1F1F1F1F1F1F1F1F1F1F1F1F1F1F4D
:1023A0001F1F1E1E1E1E1C1F1F1F0F1F0F0F1F1F74
:1023B0001F1F1F1F1F1F1F1F1F1F1F1F1F1F1F1C30
:1023C0001E1E1E1E1C1C1D0F0F0F0F0F0F0F1F1F99
:1023D0001F1F1F1F1F1F1F1F1F1F1F1F1F1F1F1F0D
:1023E0001F1F1E1F1F1E1E1F1F0F0F0F0707071F78
:1023F0001F1F1F1F1F1F1F1F1F1F1F1F1F1F1F1EEE
:102400001C1F1E1E1E1E1E07070707070707071FA4
:102410001F1F1F1F1F1F1F1F1F1F1F1F1F1F1F1FCC
:102420001F1F1F1F1F1F1F1F1F1707171303031F28
:102430001F1F1F1F1F1F1F1F1F1F1F1F1F1F1F1FAC
:102440001F1F1F1F1F1F1E03031313030303031F5D
:102450001F1F1F1F1F1F1F1F1F1F1F1F1F1F1F1F8C
:102460001F1F1F1F1F1F1F1F1F1919191818191FA2
:102470001F1F1F1F1F1F1F1F1F1F1F1F1F1F1F1F6C
:102480001F1F1F1F1F1F1F11111919191010101FB7
:102490001F1F1F1F1F1F1F1F1F1F1F1F1F1F1F1F4C
:1024A0001F1F1F1F1F1F1F1F1F1C1C1E1E1C1C1F4A
:1024B0001F1F1F1F0F0F0F1F1F1F1F1F1F1F1F1F5C
:1024C0001F1F1F1F1F1F1F1C181C1C1C1C1C1C0F48
:1024D0000F1F1F0F0F0F0F1F1F1F1F1F1F1F1F1F5C
:1024E0001F1F1F1F1F1F1F1F1F1E1E1E1E1E1E1F02
:1024F0001F0F0F0F0F070F1F1F1F1F1F1F1F1F1F54
:102500001F1F1F1F1F1F1F1E1E1E1E1E1C1C1C0FF9
:102510000F0F0F0F0707071F1F1F1F1F1F1F1F1F53
:102520001F1F1F1F1F1F1F1F1F1F1F1F1F1F1F1FBB
:102530001F1F07070703031F1F1F1F1F1F1F1F1F2B
:102540001F1F1F1F1F1F1F1F1F1F1E1E1E1E1E03BC
:10255000070707070703031F1F1F1F1F1F1F1F1F3B
:102560001F1F1F1F1F1F1F1F1F1F1F1F1F1F1F1F7B
:102570001F1703171301031F1F1F1F1F1F1F1F1FDD
:102580001F1F1F1F1F1F1F1F1F1F1F1F1F1F1F0377
:10259000070703030303011F1F1F1F1F1F1F1F1F09
:1025A0001F1F1F1F1F1F1F1F1F1F1F1F1F1E1F1F3C
:1025B0001F1703070303031F1F1F1F1F1F1F1F1FBB
:1025C0001F1F1F1F1F1F1F1F1F1F1F1F1F1F1F0733
:1025D000030303030303031F1F1F1F1F1F1F1F1FCF
:1025E0001F1F1F1F1F1F1F1F1F1F1F1F1F181F1F02
:1025F0001F1303131301011F1F1F1F1F1F1F1F1F67
:102600001F1F1F1F1F1F1F1F1F1F1F1F1F1F1F13E6
:10261000131311111101011F1F1F1F1F1F1F1F1F48
:102620001F1F1F1F1F1F1F1F1F1F1F1F1F17171FCA
:102630001F1303131300001F1F1F1F1F1F1F1F1F28
:102640001F1F1F1F1F1F1F1F1F1F1F1F1F1F1F10A9
:10265000131111111111011F1F1F1F1F1F1F1F1FFA
:102660001F1F1F1F1F1F1F1F1F1F1F1F1F1F011F98
:102670001F1301111110001F1F1F1F1F1F1F1F1FDE
:102680001F1F1F1F1F1F1F1F1F1F1F1F1F1F1F0079
:10269000111111111101011F1F1F1F1F1F1F1F1FCC
:1026A0001F1F1F1F1F1F1F1F1F1F1F1F1F1F101F49
:1026B0001F1101011919001F1F1F1F1F1F1F1F1F9F
:1026C0001F1F1F1F1F1F1F1F1F1F1F1F1F1F1F0138
:1026D000000000000101011F1F1F1F1F1F1F1F1FE0
:1026E0001F1F1F1F1F1F1F1F1F1F1F1F1F1F1F1FFA
:1026F0001F131111101C101F1F1F1F1F1F1F1F1F33
:102700001F1F1F1F1F1F1F1F1D1F1F1F1F1F1F00FA
:10271000001010001001011F1F1F0F0F0F1F1F1FA0
:102720001F1F1F1F1F1F1F1F1F1F1F1F1F1F1F1FB9
:102730001F1110101018181F1F1F1F1F1F1F1F1FF2
:102740001F1F1F1F1F1F1F1F1F1F1F1F1F1F1F18A0
:10275000101010101010101F1F0F0F0F0F0F0F1F52
:102760001F1F1F1F1F1F1F1F1F1F1F1F1F1F1F1F79
:102770001F1F10101018181F1F1F1F1F1F1F1F1FA4
:102780001F1F1F1F1F1F1F1F1F1F1F1F1F1F1F1860
:10279000181010100000101F1F0F0F0F0F0F1F1F1A
:1027A0001F1F1F1F1F1F1F1F1F1F1F1F1F1F1F1F39
:1027B0001F1B11101010181F1F1F1F1F1F1F1F1F6F
:1027C0001F1F1F1F1F1F1F1F1F1F1F1E1E1E1F1823
:1027D000101000000000101F1F0F0F0F0F0F0F1F12
:1027E0001F1F1F1F1F1F1F1F1F1F1F1F1F1F1F1FF9
:1027F0001F1F11101010101F1F1F1F1F1F1F1F1F33
:102800001F1F1F1F1F1F1F1F1F1E191B1F1F1F10F2
:10281000100010101010101F1F1F0F0F0F0F1F1F81
:102820001F1F1F1F1F1F1F1F1F1F1F1F1F1F1F1FB8
:102830001F1910101818181F1F1F1F1F1F1F1F1FE1
:102840001F1F1F1F1F1F1F1C13171F1F1F1F1F00CE
:10285000101010181010101F1F1F1F1F1F1F1F1FE9
:102860001F1F1F1F1F1F1F1F1F1F1F1F1F1F181F7F
:102870001F1D18181818181F1F1F1F0F0F0F0F1FCD
:102880001F1F1F1F1F1F1F1B1F1F1F1F1F1F1F007B
:10289000101010101010101F1F1F1F1F1F1F1F1FB1
:1028A0001F1F1F1F1F1F1F1F1F1F1F1F191A1F1F43
:1028B0001F1C181C1C08101F1F1F0F070F0F0F1FB6
:1028C0001F1F1F1F1F1F1F1F1F1F1F1F1F1F1F181F
:1028D000101010101010100F0F0F07070707071F19
:1028E0001F1F1F1F1F1F1F1F1F1F1F1F1E1F1F1FF9
:1028F0001F1E1C1C1C0E101F1F0F07070707071F9A
:102900001F1F1F1F1F1F1F1F1F1F1F1F1F1F1F18DE
:102910001010101011111107070707070303131FE9
:102920001F1F1F1F1F1F1F1F1F1F1F1F1F1F1F1FB7
:102930001E1C1C181C1C1E1F070303030101011F82
:102940001F1F1F1F1F1F1F1F1E1F1F1F1F1F1F1C9B
:102950001C08000010181001000000000000001FFB
:102960001F1F1F1F1F1F1F1F1F1F1F1F1F1F1F1F77
:102970001E1E1818181C1C00000000000000001F7C
:102980001F1F1F1F1F1F1F1F1F191D1D1E1E1E1D66
:102990001D1D1D1C0C000000101000000000001F79
:1029A0001F1F1F1F1F1F1F1F1F1F1F1F1F1F1F1F37
:1029B0001E1C1C1810181C01000000000000001F45
:1029C0001F1F1F1F1F1F1F1F191B1B1D1E1E1E1C2D
:1029D0001D1D1C1C08000000000000000000001F5E
:1029E0001F1F1F1F1F1F1F1F1F1F1F1F1F1F1F1FF7
:1029F0001C18101010181803010000000000001F20
:102A00001F1F1F1F1F1F1F1F13131B1D1D1E1E18FF
:102A10001A1B181818000000000000000000001F1A
:102A20001F1F1F1F1F1F1F1F1F1F1F1F1F1F1F1FB6
:102A30001C1C1C18181C1C03000000000000001FB8
:102A40001F1F1F1F1F1F1F1F131B1B1D1D1E1E1CB3
:102A50001F1F1B1810000000000000000000001FD6
:102A60001F1F1F1F1F1F1F1F1F1F1F1F1F1F1F1F76
:102A70001E1C1C10181E1E00000000000000001F7D
:102A80001F1F1F1F1F1F1F1F13131B1D1C1E1F1E79
:102A90001E1E1E1E18000000101010000000001F57
:102AA0001F1F1F1F1F1F1F1F1F1F1F1F1F1F1F1F36
:102AB0001F1F1F1E1F1F1F181818100000101C1F9B
:102AC0001F1F1F1F1F1F1F1F1919191C1C1E1F1F2F
:102AD0001F1F1F1F0F0F001C1C1D1D1D1D10001F81
:102AE0001F1F1F1F1F1F1F1F1F1F1F1F1F1F1E1FF7
:102AF0001F1F1F1F1F1F1F1C1F1F1F1F1F1F1F1FE9
:102B00001F1F1F1F1F1F1F1C1C1C1C1E1E1F1F07FB
:102B1000070707070703111F1F1F1F1F1F1F1F1F67
:102B20001F1F1F1F1F1F1F1F1F1F1F1F1F1F1F1FB5
:102B30001F1F1F1F1F1F1F1F1F1F1F1F1F1F1F1FA5
:102B40001F1F1F1F1F1F1F18181000181C1C1E0FEF
:102B50000F0707070703011F1F1F1F1F1F1F1F1F2F
:102B60001F1F1F1F1F1F1F1F1F1F1F1F1F1F1F1F75
:102B70001F1F1F1F1F1F171F1F1F1F1F1F1F1F1F6D
:102B80001F1F1F1F1F1F1F1E1E1E1E1E1E1F1F0179
:102B9000000101010301001F1F1F1F1F1F1F1F1F17
:102BA0001F1F1F1F1F1F1F1F1F1F1F1F1F1F1F1F35
:102BB0001F1F1F1F1F1F1F1F1F1F1F1F1F1F1F1F25
:102BC0001F1F1F1F1F1F1F1C10100018181C1E1F67
:102BD0000F0F0F070703001F1F1F1F1F1F1F1F1FA0
:102BE0001F1F1F1F1F1F1F1F1F1F1F1F1F1F1E1FF6
:102BF0001F1F1F1F1F1F1F1F1F1F1F1F1F1F1F1FE5
:102C00001F1F1F1F1F1F1F1E1C1C1C1E1F1F1F07F7
:102C10000101010100181C1F1F1F1F1F0F03001FB0
:102C20001F1F1F1F1F1F1F1F1F1F1F1F1F1F1F1FB4
:102C30001F1F1F1F1F1F1F1F1C1E1F1F1F1F1F1FA8
:102C40001F1F1F1F1F1F1F1F1B191818181E1F1FB4
:102C50001F1F0F060200101F1F1300000000001F9F
:102C60001F1F1F1F1F1F1F1F1F1F1F1F1F1F1F1E75
:102C70001C1C1C181C1E1F00000101010103171F52
:102C80001F1F1F1F1F1F1F1F1D18141F1F1F1F1F68
:102C90001C18000010181C07000000000101011F93
:102CA0001F1F1F1F1F1F1F1F1F1F1F1F1F1F1F1F34
:102CB0001900000010101B1F17071F1F1F1F1F1FC9
:102CC0001F1F1F1F1F1F1F1F07121E1E1F1F1F1B3F
:102CD000000000101011011F1F0F1C1F1F1F1F1FBE
:102CE0001F1F1F1F1F1F1F1F1F1E1E1E1E1E1F1FF9
:102CF0001F07010303070F1F1F1F1F1F1F1F1F1F7A
:102D00001C1F1F1F1F1F1F1E1C041C1C1E1E1C0718
:102D1000030303030707071F1E181F1F1F1F1F1F83
:102D20001F1F1F1F1F1F1F1F1F1F1C1C1C1C1F1FBF
:102D30001F1F030707071F1F1F1F1F1F1F1F1F1F07
:102D4000131C1F1F1F1F1F1E1C0C1C1C1C1C1C1FC8
:102D500007030F0B0F0F0F1F1F131E1F1F1F1F1F18
:102D60001F1F1F1F1F1F1F1F1F1F1C1C1C1C1F1F7F
:102D70001F1F070307071F1F1F1F1F1F1F1F1F1FC7
:102D800007181F1F1F1F1F1F1C0C1C1C1C1C1C1F97
:102D900007030F0F0F0F0F1F1F070F1F1F1F1F1FEF
:102DA0001F1F1F1F1F1F1F1F1F1E1C1C1C1C1E1F41
:102DB0001F1F0703070F1F1F1F1F1F1F1F1F1F1F7F
:102DC00007181F1F1F1F1F1E18181C1C1C1C1C1F50
:102DD00007070F0F0F0F0F1F1F031D1F1F1F1F1FA1
:102DE0001F1F1F1F1F1F1F1F1F1F1C1C1C1C1E1F00
:102DF0001F1F070307071F1F1F1F1F1F1F1F1F1F47
:102E000017191F1F1F1F1F1F1C181C1C1C1C1C1FF9
:102E10000707070F0F0F0F1F1F031F1F1F1F1F1F66
:102E20001F1F1F1F1F1F1F1F1F1F1C1C1C1C1F1FBE
:102E30001F1F030707071F1F1F1F1F1F1F1F1F1F06
:102E4000110E1F1F1F1F1F1F1C0C1C1C1E1E1E0FE0
:102E5000030607070707071F1B011F1F1F1F1F1F51
:102E60001F1F1F1F1F1F1F1F1F1F1E1C1C1E1E1F7B
:102E70001F1F0F0307070F1F1F1F1F1F1F1F1F1FCE
:102E80001D1C1F1F1F1F1F1F1C1C1C1C1E1E1E1F66
:102E9000070303030707071F1D181F1F1F1F1F1FFF
:102EA0001F1F1F1F1F1F1F1F1F1F1C1C1C1E1F1F3C
:102EB0001F1F030707070F1F1F1F1F1F1F1F1F1F96
:102EC0001C1E1F1F1F1F1F1F1C0C1C1C1E1E1E0F45
:102ED000030303030707071F1C031F1F1F1F1F1FD9
:102EE0001F1F1F1F1F1F1F1F1F1F1E1E1E1E1E1FF7
:102EF0001F1F050107070F1F1F1F1F1F1F1F1F1F5A
:102F00001C1E1F1F1F1F1F1F1E0C1C1C1E1E1E0F02
:102F1000030303030707071F1C011F1F1F1F1F1F9A
:102F20001F1F1F1F1F1F1F1F1F1F1E1E1C1E1F1FB7
:102F30001F1F010303030F1F1F1F1F1F1F1F1F1F23
:102F40001C1E1F1F1F1F1F1F1C0C1C1C1E1E1C0FC6
:102F5000070303030707071F1F1C101F1F1F1F1F47
:102F60001F1F1F1F1F1F1F1F1F1E1E1C1C1E1F1F7A
:102F70001F0200030303071F1F0F0F1F1F1F1F1E2A
:102F80001F1F1F1F1F1F1F1F0C0010101C1C1C0FBA
:102F900007030307070F0F1F1F1F1C101F1F1F1FF3
:102FA0001F1F1F1F1F1F1F1F1E1E1C1E1E1F1F1740
:102FB0000000010101031707070F1F1F1F1F1F1F1D
:102FC0001F1E1F1F1F1F1F1E1E0810181C1C1C0762
:102FD000010103070707071F1F1F1F181F1F1F1FC0
:102FE0001F1F1F1F1F1F1F1F1F1F1F1F1F1F1F1FF1
:102FF0001810100010181F070F070F0F0F0F1F1FBB
:103000001F1F1F1F1F1F1F1F1F031D1E1F1F1F1DF1
:10301000181010010313111F171F0F1C1E1F1F1F55
:103020001F1F1F1F1F1F1F1F1F1F1F1F1F1F1F1FB0
:103030001E1C18181C1C1F13070703030303071F7C
:103040001F1F1F1F1F1F1F1F1F111E1F1F1F1F1F9F
:103050001E1C18000018180F0E0F071F1E1F1F1F21
:103060001F1F1F1F1F1F1F1F1F1F1F1F1F1F1F1F70
:103070001F1E1E181E1E1F1C000000000000001F47
:103080001F1F1F1F1F1F1F1F03111E1E1F1F1F1F7C
:103090001F1F1E0800161E1B1F1303030007071F18
:1030A0001F1F1F1F1F1F1F1F1F1F1F1F1F1F1F1F30
:1030B0001F1F1E181E1F1F1F100000000000001FF2
:1030C0001F1F1F1F1F1F1F0F011D1E1E1F1F1F1F42
:1030D0001F1F1E08001E1E181F1303010006071FD6
:1030E0001F1F1F1F1F1F1F1F1F1F1F1F1F1F1F1FF0
:1030F0001F1F1E1E1F1F1F1F180000000000001EA4
:103100001F1F1F1F1F1F1F07031D1E1E1F1F1F1F07
:103110001F1F1E00161E1E18191303010102071F90
:103120001F1F1F1F1F1F1F1F1F1F1F1F1F1F0F1FBF
:103130001F1E1F1F1F1F1F18100000000010181E49
:103140001F1F1F1F1F1F1F031D1E1F1F1F1F1F1FAE
:103150001F1E00161E1E1E18190101000003031F6A
:103160001F1F1F1F1F1F1F1F1F1F1F1B1818191F87
:103170001F1F1F1F0F07111F1F1F1F1F1F1F1F1F95
:103180001F1F1F1F1F1F1F1F1F13171F1F1F1F186A
:103190001E1F1F1F1F1F1F1C00001E1E1E1E1E1F86
:1031A0001F1F1F1F1F1F1F1F1F1F1F1F1F1F1F1F2F
:1031B00010001F1F1F1F1F101C0603181E1F1F1F9C
:1031C0001F1F1F1F1F1F1F1F1F1F1F1F1F10101F2D
:1031D0001F1F1F1F1F1F1F1F1F1F1F1F1F1F1F1FFF
:1031E0001F1F1F1F1F1F1F1F1F1F1F1F1F1F1F1FEF
:1031F0001F1F1F1F1F1F1F1F1F1F1F1F1F1F1F1FDF
:103200001F1F1F1F1F1F1F1F1F1F1F1F1018181FEB
:103210001F1F1F1F0F1F1F1F1F1F1F1F1F1F1F1FCE
:103220001F1F1F1F1F1F1F1F1F1F1F1F1F18181FBC
:103230001F1F1F1F1F07071F1F1F1F1F1F1F1F1FCE
:103240001F1F1F1F1F1F1F1C1C1F1F1F1F1F1F0FA4
:103250000F1F1F1F1F1F1F1F1F1F1F1F1F1F1F1F8E
:103260001F1F1F1F1F1F1F1F1F1C181C1E1E1F1F7D
:103270001F0703070F0F1F1F1F1F1F1F1F1F1F1FCA
:103280001F1F1F1F1F1F1F1F1F1F1F1F1F1F1F1F4E
:103290001F1F1F1F1F1F1F1F1F1F1F1F1F1F1F1F3E
:1032A0001F1F1F1F1F1F1F1C181C1C1C1F1F1F1F41
:1032B00007030F1F1F1F1F1F1F1F1F1F1F1F1F1F62
:1032C0001F1F1F1F1F1F1F1F1F1F1F1F1F1F1F1F0E
:1032D0001F1F1F1F1F1F1F1F1F1F1F1F1F1F1F1FFE
:1032E0001F1F1F1F1F1F1F1F1F181C1C1C1E1F1FFF
:1032F0001F1F03030F1F1F1F1F1F1F1F1F1F1F1F26
:103300001F1F1F1F1F1F1F1F1F1F1F1F1F1F1F1FCD
:103310001F1F1F1F1F1F1F1F1F1F1F1F1F1F1F1FBD
:103320001F1F1F1F1F1F1F1F1F1F1F1F1F1F1F1FAD
:103330001F1F1F1F1F1F1F1F1F1F1F1F1F1F1F1F9D
:103340001F1F1F1F1F1F1F19181C1C1C1F1F1F1FA3
:103350000703071F1F1F1F1F1F1F1F1F1F1F1F00E8
:10336000000000000000000000000000000000005D
:10337000000000000000000000000000000000004D
:1033800000000000000000001F1F1F0F0F0F0F00A4
:10339000101C1F1F1F1F1F00000000101818100016
:1033A000000000000000000000000000000002001B
:1033B000000000000000000000000000000000000D
:1033C00001010100000000061C1B1F1F0F0F0F0052
:1033D0001C1E1F1F1F1F1F00000010181C1C1800A0
:1033E0000000000001030100000000001018180098
:1033F00000000000000000000000000000000000CD
:10340000030301010000000800111D1E0F0F0F082B
:103410001E1F1B1F1F1F1F0000001C181C1C1C0050
:103420000C0F0F0703010000000000000000000067
:10343000000000000000000000000000000000008C
:10344000060703010000000000101C1E0F0F0F0CE8
:103450000F0F1D1F1F1F1F0000001E181C1E1C0227
:10346000061E1C000000000000000000000000001C
:10347000000000000000000000000000000000004C
:1034800004070703010000000010181E1F0F0F069D
:1034900007070E1E1F1F1F0000001F1E1C1E0E0010
:1034A00000010303000000000010181800000000D5
:1034B000000000000000000000000000000000000C
:1034C000000000000000000000000000000E0700E7
:1034D00000000000000211000000080C0F031E0095
:1034E00000000000000000000000000C0E0F0700AC
:1034F00000000000000010000000000000000000BC
:1035000000000000000000010000000000000010AA
:1035100000000000000000000000000000000000AB
:10352000000000000000000000000000000000009B
:10353000000000000018180000000000000000005B
:103540000000000000000001030100000000001066
:10355000100000000000000000000000000000005B
:103560000000000000000000000000000001030057
:1035700000000000001C1C00000000000000000013
:103580000000000000000007070000000000001C11
:103590001C0000000000000000000000000000000F
:1035A0000000000000000000000000000707070006
:1035B00000000000101018000000000000000000D3
:1035C00000000000000000030100000000000018DF
:1035D0001C0C0000000000000000000000000000C3
:1035E00000000000000000000000000000010300D7
:1035F0000000000C1C181800000000000000000073
:10360000000000000000000303070600000000188F
:103610001810000000000000000000000000000082
:10362000000000000000000000000000000F1F006C
:103630000000000000181C00000000000000000056
:103640000000000000000003030000000000001C58
:103650001E06000000000000000000000000000046
:103660000000000000000000000000000103030053
:1036700000001C1C181818000000000000000000CA
:103680000000000000000003030101010000001819
:1036900018101010000000000000000000000000E2
:1036A00000000000000000000000000000011F00FA
:1036B00000000000031F1E000000000000000001C9
:1036C000000000000000001F170300000000001CA5
:1036D0001C100000000000000000000000000000BE
:1036E000000000000000000000000C1C0F07030099
:1036F00000000000101C1C00000000000000000082
:103700000000000000000007010000000000001C95
:103710001C1C0C0C00000000000000000000000059
:10372000000000000000000000000000030307008C
:103730000000070F1E1C1800000000000000000021
:10374000000000000000000707030706060000183D
:103750001818000000000000000000000000000039
:103760000000060F0F0700000001031F1F1F0F00BE
:10377000001018181E1F1F0000000000021F1F006D
:10378000000000000000000F0F0F0F070000001ED8
:103790001E1E1E180000000E0000000000000000A9
:1037A00000000000000000000307070707070700EC
:1037B000181818181C1F1F0000000000000010003F
:1037C000000000000000000707070F0F1F1F0F1E5B
:1037D0001C1C1C1F1F1F1F00000000000000000019
:1037E00000000000000000000000010307030700C4
:1037F0000000001818181800000000000000000069
:1038000000000000000000030303030303070F1878
:1038100018181C1E1E1E18000000000000000000EA
:103820000000000000000000000000030707070080
:103830000000001818181800000000000000000028
:10384000000000000000000303030107070707183A
:10385000181E1E1E181C1C000000000000000000A6
:10386000000000000000000000000103070707003F
:1038700000000018181818000000000000000000E8
:103880000000000000000007070303070707071CEC
:103890001C1C1C1E1E1C1C00000000000000000060
:1038A0000000000000000000000000030303070008
:1038B00000000018181818000000000000000000A8
:1038C000000000000000001F1F0307030707071C7C
:1038D0001C1C1C1C1C1C1C00000000000000000024
:1038E00000000000000000000000010303030700C7
:1038F000000010181C1C1C0000000000000000004C
:10390000000000000000000F0F0F0F0307070F1C3F
:103910001C18181C1C1C1E000000000000000000E9
:103920000000000000000000000001030301070088
:1039300000001C1C1C1C18000000000000000001FE
:10394000010000000000001F1F07030707070718FA
:1039500018101C1C1C181C000000000000000000B7
:10396000000000000003030000010103111F1F00FD
:1039700000181C1C1C1C18000000000000000000A7
:1039800000000000000000070703030707070718EF
:1039900018101C1C1C1C1C00000000000000000073
:1039A0000000010101000000000001191D1F0700B7
:1039B00000001C1C1C1C1C0000000000000000007B
:1039C000000000000000000F0F03030307070718A3
:1039D0001810181C1C1C1C00000000000000000037
:1039E00000000000000000000018191D1F0F070054
:1039F00000001C1C1C1C1C0000000000000000003B
:103A0000000000000000000F0F030303030303186E
:103A10001810181C1C1C1C000000000000000000F6
:103A200000000000000000000000191D1F0F07002B
:103A300000101C1C1C1C1C000000000000000000EA
:103A4000000000000000000F0F030703030303182A
:103A50001810181C1C1C1C000000000000000000B6
:103A6000000000000000000000030303030F0F002C
:103A700000181C1C1C1C1C000000000000000000A2
:103A8000000000000000000F0F0F07070707071CCA
:103A90001C18181C1E1C1C00000000000000000068
:103AA0000000000000000000070F0F0F0F070700C5
:103AB00000181C1C1C1C1C00000000000000000062
:103AC00000000000000000070F0F07070707071E90
:103AD0001F1F1F1F1F1F1F0000000000000000000D
:103AE0000000000000000000060F070F0F07030092
:103AF000001C1D1F1F1F1F000000101010181800B1
:103B00000000000000000003030303010F0F071F64
:103B10001F1F1F1F1F1F1F1818100010101010004C
:103B20000000000000000000010303030301000087
:103B3000181F1F1F1F1F1F080C0C0C1C1E1E1E0011
:103B40000000000000000000000000000303011F4F
:103B50001F1F1F1F1F1F1F1E1E1C181C1C1C1C00AC
:103B60000000000000000000000000000000000055
:103B70001E1F1F1F1F1F0F0606161E1E1F1F1F00C2
:103B80000000000000000000000000000101000F24
:103B90000F0F0F071F1F1F1F1F1E1C1E1E1E1E00A4
:103BA0000000000000000000000000000000000015
:103BB0001F1F1F1F1F0F0F02121B1B1B1F1B1F008E
:103BC0000000000000000000000000000101000FE4
:103BD0000F0F07071F1F1F1F1F1E1E1E1E1E1E006A
:103BE00000000000000000000001010101010300CD
:103BF0000C1F1F1F1F1F1F00000010101E1C100095
:103C0000000000000000000F0F1F1F000100001F38
:103C10001F1F1F1F1F1F1F18181C1C1F1F1F1E00E8
:103C20000000000000000000000000000000000094
:103C300000000001030303000000001F1F1F1F00FE
:103C40000000000000000000000000000000000173
:103C5000010000000000001F1F1F0F0F07070300D7
:103C60000000000000000000000000000000000054
:103C70000000000000000000000000001810100FFD
:103C80000F0000000000001C1C00000000000000ED
:103C90000000000000000000000001010000000022
:103CA0000000000000000000000000000000000014
:103CB00000000000000000000000000018101000CC
:103CC000000000000000001F1F0000000000001C9A
:103CD0001C000000000000000000010100000000C6
:103CE00000000000000000000000000000000000D4
:103CF00000000000000003000000000000000000C1
:103D00000000000000000007000000000000001F8D
:103D10000300000000000018080000000000000080
:103D20000000000000000000000000000000000093
:103D30000000000000001F000000000000001F0045
:103D40000000000000000000000000000000000F64
:103D5000000000000000001F000000000000000044
:103D60000000000000000000000000000000030050
:103D70000000000000001F000000000000001F0302
:103D8000000000000000001F070000000000001FEE
:103D90001F070F0F0F0F0F1F1F191F1F1F1D1D00C4
:103DA000000000000000000000000000000007000C
:103DB0000000000001071F000000000F1F1F1F1F51
:103DC0001F1E1E1E1E1E0E1F1E1E1E1E1E1E0E1F30
:103DD0001F1F1E1E1E0E0C1F1F1F1F1F1D1D00005C
:103DE000000000000000030000000000030F1F009F
:103DF000000000010311191F1F1F1F1F1F1F1F1F7E
:103E00001F1F1F1B1B13101F0F1F1F0F0500001C60
:103E10001E1F1F1F1F07071F0F1F1F1F1F1F1F0012
:103E20000000000000030F00000000000011180354
:103E30001F1F1F1F1F1F1F1C1C1E1E1E1E1E181EA5
:103E4000171F16161010001C1E1F1F1F1707011F1B
:103E50000F1F1F1F1F1F1F1E1E1F1F1F1F1F1F00A3
:103E60000000000000061F0000010303010303001F
:103E70001F1F1F1F1F1F1F00101818181818101FB2
:103E80001F0F0F0D010000111D1F1F1F0F0B021F21
:103E90001F1F1F1F1F1F1F181C1F1F1F1F1D1D005F
:103EA0000000000000061F000001030301030300DF
:103EB0000F1F1F1F1F1F1F00101818181818101F82
:103EC0001F0F0F0D000000111D1F1F1F0B0B021FE6
:103ED0001F1F1F1F1F1F1F18181F1F1F1F1D1C0024
:103EE0000000000000061F0000030303010303009D
:103EF0000F1F1F1F1F1F1F00101818181818101F42
:103F00000F1F0F0D000000131D1F1F1F0B0A001FA6
:103F10001F1F1F1F1F1F1F18181F1F1F1F1B1C00E5
:103F20000000000000071F00010303030703130044
:103F30001F1F1F1F1F1F1F00101010181810001F19
:103F40001F1D1D050000001B1C1F1F0F0F0A000F67
:103F50001F1F1F1F1F1F1F181F1F1F1F1F1B1800A2
:103F60000000000000071F00000001030310180FED
:103F70001F1F1F1F1F1F1F00101818181C18101FAD
:103F80001F1F16100000001C1F1F1F1F0F03011F03
:103F90001F1F1F1F1F1F1F181F1F1F1F1F18180065
:103FA0000000000000071F00000101030310180FAC
:103FB0001F1F1F1F1F1F0F00101818181818101F81
:103FC0001F1B1A080000001C1F1F1F070501011FEF
:103FD0001F1F1F1F1F1F1F101F1F1F1F1F1818002D
:103FE0000000000000071F00000101030310180F6C
:103FF0001F1F1F1F1F1F1F00101010181810101F49
:104000001F1B1B000000001C1E1F1F0F0703011FAA
:104010001F1F1F1F1F1F1F101F1F1F1B1A181800F5
:104020000000000000071F00010103070300100E3D
:104030001F1F1F1F1F1F1F00000000101000001F68
:104040001F1F1A10000000191F1F1F0F0F01011F53
:104050001F1F1F1F1F1F1F011F1F1F1714101000DE
:104060000000000000010300070F0F1F0F131F00C7
:104070001C1C1C1C1C181F0000000000001C1E073C
:104080000F1F1C100000001F1F0F0F070F0F1F1F17
:104090001F1F1C1C1C1C1E1F171900000000000005
:1040A0000000000000000001070F0F0F171F1F1076
:1040B0001E1E1E1C1C1C1D0000000000000C1E000B
:1040C000000000000000001F070703030707071F89
:1040D0001F1C1C1C1C1C1C1F1707030300000000D6
:1040E00000000000000C1F0003070707070307007C
:1040F000181F1F1F1F1F1E000000000000000E1FC2
:104100001F0000000000001F1F070707070F0F1FF9
:0F4110001F1C1C1C1C1C1C1F1F0000000000009B
:00000001FF
